{
  "address": "0xD27010Ba893C80fB40B8F72a8DCb3040E50AF6ee",
  "abi": [
    {
      "inputs": [],
      "stateMutability": "nonpayable",
      "type": "constructor"
    },
    {
      "anonymous": false,
      "inputs": [
        {
          "indexed": true,
          "internalType": "uint256",
          "name": "contractId",
          "type": "uint256"
        },
        {
          "indexed": true,
          "internalType": "address",
          "name": "contractAddress",
          "type": "address"
        },
        {
          "indexed": false,
          "internalType": "address",
          "name": "creator",
          "type": "address"
        },
        {
          "indexed": false,
          "internalType": "address[]",
          "name": "owners",
          "type": "address[]"
        },
        {
          "indexed": false,
          "internalType": "uint256",
          "name": "signaturesRequired",
          "type": "uint256"
        }
      ],
      "name": "NewWalletCreated",
      "type": "event"
    },
    {
      "anonymous": false,
      "inputs": [
        {
          "indexed": true,
          "internalType": "address",
          "name": "contractAddress",
          "type": "address"
        },
        {
          "indexed": false,
          "internalType": "address[]",
          "name": "owners",
          "type": "address[]"
        },
        {
          "indexed": true,
          "internalType": "uint256",
          "name": "signaturesRequired",
          "type": "uint256"
        }
      ],
      "name": "Owners",
      "type": "event"
    },
    {
      "inputs": [
        {
          "internalType": "string",
          "name": "_walletName",
          "type": "string"
        },
        {
          "internalType": "address[]",
          "name": "_owners",
          "type": "address[]"
        },
        {
          "internalType": "uint256",
          "name": "_totalApprovals",
          "type": "uint256"
        }
      ],
      "name": "createNewMultiSigWallet",
      "outputs": [],
      "stateMutability": "nonpayable",
      "type": "function"
    },
    {
      "inputs": [
        {
          "internalType": "uint256",
          "name": "_index",
          "type": "uint256"
        }
      ],
      "name": "getMultiSigInfo",
      "outputs": [
        {
          "internalType": "string",
          "name": "walletName",
          "type": "string"
        },
        {
          "internalType": "address",
          "name": "multiSigAddress",
          "type": "address"
        },
        {
          "internalType": "address[]",
          "name": "owners",
          "type": "address[]"
        },
        {
          "internalType": "uint256",
          "name": "signaturesRequired",
          "type": "uint256"
        },
        {
          "internalType": "uint256",
          "name": "balance",
          "type": "uint256"
        }
      ],
      "stateMutability": "view",
      "type": "function"
    },
    {
      "inputs": [
        {
          "internalType": "uint256",
          "name": "",
          "type": "uint256"
        }
      ],
      "name": "multiSigs",
      "outputs": [
        {
          "internalType": "contract MultiSig",
          "name": "",
          "type": "address"
        }
      ],
      "stateMutability": "view",
      "type": "function"
    },
    {
      "inputs": [],
      "name": "numberOfMultiSigs",
      "outputs": [
        {
          "internalType": "uint256",
          "name": "",
          "type": "uint256"
        }
      ],
      "stateMutability": "view",
      "type": "function"
    }
  ],
  "transactionHash": "0xe3a3088a745b71d8e8cd08024e239f80c11fb0cb581045f4d911e9ab03dc88f1",
  "args": [],
  "numDeployments": 1,
  "solcInputHash": "feb3f3942211a5915e8999e7cde2790e",
  "bytecode": "0x608060405234801561001057600080fd5b50613cdc806100206000396000f3fe60806040523480156200001157600080fd5b5060043610620000525760003560e01c80632f1d8a231462000057578063392ee8c114620000795780639c01ad9314620000b3578063c67fdb9414620000d3575b600080fd5b6200006162000109565b60405162000070919062000596565b60405180910390f35b620000976004803603810190620000919190620005f8565b62000115565b604051620000aa959493929190620007e1565b60405180910390f35b620000d16004803603810190620000cb919062000aa9565b6200041f565b005b620000f16004803603810190620000eb9190620005f8565b6200052d565b60405162000100919062000bae565b60405180910390f35b60008080549050905090565b6060600060606000806000868154811062000135576200013462000bcb565b5b9060005260206000200160009054906101000a900473ffffffffffffffffffffffffffffffffffffffff1673ffffffffffffffffffffffffffffffffffffffff1663cf8d8ca06040518163ffffffff1660e01b815260040160006040518083038186803b158015620001a657600080fd5b505afa158015620001bb573d6000803e3d6000fd5b505050506040513d6000823e3d601f19601f82011682018060405250810190620001e6919062000c78565b60008781548110620001fd57620001fc62000bcb565b5b9060005260206000200160009054906101000a900473ffffffffffffffffffffffffffffffffffffffff16600088815481106200023f576200023e62000bcb565b5b9060005260206000200160009054906101000a900473ffffffffffffffffffffffffffffffffffffffff1673ffffffffffffffffffffffffffffffffffffffff1663fe77c9d16040518163ffffffff1660e01b815260040160006040518083038186803b158015620002b057600080fd5b505afa158015620002c5573d6000803e3d6000fd5b505050506040513d6000823e3d601f19601f82011682018060405250810190620002f0919062000d87565b6000898154811062000307576200030662000bcb565b5b9060005260206000200160009054906101000a900473ffffffffffffffffffffffffffffffffffffffff1673ffffffffffffffffffffffffffffffffffffffff1663ea1d59c96040518163ffffffff1660e01b815260040160206040518083038186803b1580156200037857600080fd5b505afa1580156200038d573d6000803e3d6000fd5b505050506040513d601f19601f82011682018060405250810190620003b3919062000def565b60008a81548110620003ca57620003c962000bcb565b5b9060005260206000200160009054906101000a900473ffffffffffffffffffffffffffffffffffffffff1673ffffffffffffffffffffffffffffffffffffffff16319450945094509450945091939590929450565b60006200042b62000109565b9050600084848460405162000440906200056d565b6200044e9392919062000e21565b604051809103906000f0801580156200046b573d6000803e3d6000fd5b5090506000819080600181540180825580915050600190039060005260206000200160009091909190916101000a81548173ffffffffffffffffffffffffffffffffffffffff021916908373ffffffffffffffffffffffffffffffffffffffff1602179055508073ffffffffffffffffffffffffffffffffffffffff16827f6b2dda36d033a0e29a5804c2adf9735c14503cfa7107789e76e5cd9d4e42d8513387876040516200051e9392919062000e6c565b60405180910390a35050505050565b600081815481106200053e57600080fd5b906000526020600020016000915054906101000a900473ffffffffffffffffffffffffffffffffffffffff1681565b612df68062000eb183390190565b6000819050919050565b62000590816200057b565b82525050565b6000602082019050620005ad600083018462000585565b92915050565b6000604051905090565b600080fd5b600080fd5b620005d2816200057b565b8114620005de57600080fd5b50565b600081359050620005f281620005c7565b92915050565b600060208284031215620006115762000610620005bd565b5b60006200062184828501620005e1565b91505092915050565b600081519050919050565b600082825260208201905092915050565b60005b838110156200066657808201518184015260208101905062000649565b8381111562000676576000848401525b50505050565b6000601f19601f8301169050919050565b60006200069a826200062a565b620006a6818562000635565b9350620006b881856020860162000646565b620006c3816200067c565b840191505092915050565b600073ffffffffffffffffffffffffffffffffffffffff82169050919050565b6000620006fb82620006ce565b9050919050565b6200070d81620006ee565b82525050565b600081519050919050565b600082825260208201905092915050565b6000819050602082019050919050565b6200074a81620006ee565b82525050565b60006200075e83836200073f565b60208301905092915050565b6000602082019050919050565b6000620007848262000713565b6200079081856200071e565b93506200079d836200072f565b8060005b83811015620007d4578151620007b8888262000750565b9750620007c5836200076a565b925050600181019050620007a1565b5085935050505092915050565b600060a0820190508181036000830152620007fd81886200068d565b90506200080e602083018762000702565b818103604083015262000822818662000777565b905062000833606083018562000585565b62000842608083018462000585565b9695505050505050565b600080fd5b600080fd5b7f4e487b7100000000000000000000000000000000000000000000000000000000600052604160045260246000fd5b62000890826200067c565b810181811067ffffffffffffffff82111715620008b257620008b162000856565b5b80604052505050565b6000620008c7620005b3565b9050620008d5828262000885565b919050565b600067ffffffffffffffff821115620008f857620008f762000856565b5b62000903826200067c565b9050602081019050919050565b82818337600083830152505050565b6000620009366200093084620008da565b620008bb565b90508281526020810184848401111562000955576200095462000851565b5b6200096284828562000910565b509392505050565b600082601f8301126200098257620009816200084c565b5b8135620009948482602086016200091f565b91505092915050565b600067ffffffffffffffff821115620009bb57620009ba62000856565b5b602082029050602081019050919050565b600080fd5b620009dc81620006ee565b8114620009e857600080fd5b50565b600081359050620009fc81620009d1565b92915050565b600062000a1962000a13846200099d565b620008bb565b9050808382526020820190506020840283018581111562000a3f5762000a3e620009cc565b5b835b8181101562000a6c578062000a578882620009eb565b84526020840193505060208101905062000a41565b5050509392505050565b600082601f83011262000a8e5762000a8d6200084c565b5b813562000aa084826020860162000a02565b91505092915050565b60008060006060848603121562000ac55762000ac4620005bd565b5b600084013567ffffffffffffffff81111562000ae65762000ae5620005c2565b5b62000af4868287016200096a565b935050602084013567ffffffffffffffff81111562000b185762000b17620005c2565b5b62000b268682870162000a76565b925050604062000b3986828701620005e1565b9150509250925092565b6000819050919050565b600062000b6e62000b6862000b6284620006ce565b62000b43565b620006ce565b9050919050565b600062000b828262000b4d565b9050919050565b600062000b968262000b75565b9050919050565b62000ba88162000b89565b82525050565b600060208201905062000bc5600083018462000b9d565b92915050565b7f4e487b7100000000000000000000000000000000000000000000000000000000600052603260045260246000fd5b600062000c1162000c0b84620008da565b620008bb565b90508281526020810184848401111562000c305762000c2f62000851565b5b62000c3d84828562000646565b509392505050565b600082601f83011262000c5d5762000c5c6200084c565b5b815162000c6f84826020860162000bfa565b91505092915050565b60006020828403121562000c915762000c90620005bd565b5b600082015167ffffffffffffffff81111562000cb25762000cb1620005c2565b5b62000cc08482850162000c45565b91505092915050565b60008151905062000cda81620009d1565b92915050565b600062000cf762000cf1846200099d565b620008bb565b9050808382526020820190506020840283018581111562000d1d5762000d1c620009cc565b5b835b8181101562000d4a578062000d35888262000cc9565b84526020840193505060208101905062000d1f565b5050509392505050565b600082601f83011262000d6c5762000d6b6200084c565b5b815162000d7e84826020860162000ce0565b91505092915050565b60006020828403121562000da05762000d9f620005bd565b5b600082015167ffffffffffffffff81111562000dc15762000dc0620005c2565b5b62000dcf8482850162000d54565b91505092915050565b60008151905062000de981620005c7565b92915050565b60006020828403121562000e085762000e07620005bd565b5b600062000e188482850162000dd8565b91505092915050565b6000606082019050818103600083015262000e3d81866200068d565b9050818103602083015262000e53818562000777565b905062000e64604083018462000585565b949350505050565b600060608201905062000e83600083018662000702565b818103602083015262000e97818562000777565b905062000ea8604083018462000585565b94935050505056fe60806040523480156200001157600080fd5b5060405162002df638038062002df68339818101604052810190620000379190620006c7565b60008251116200007e576040517f08c379a00000000000000000000000000000000000000000000000000000000081526004016200007590620007c2565b60405180910390fd5b60008111801562000090575081518111155b620000d2576040517f08c379a0000000000000000000000000000000000000000000000000000000008152600401620000c99062000834565b60405180910390fd5b60005b8251811015620002d5576000838281518110620000f757620000f662000856565b5b60200260200101519050600073ffffffffffffffffffffffffffffffffffffffff168173ffffffffffffffffffffffffffffffffffffffff16141562000174576040517f08c379a00000000000000000000000000000000000000000000000000000000081526004016200016b90620008d5565b60405180910390fd5b600160008273ffffffffffffffffffffffffffffffffffffffff1673ffffffffffffffffffffffffffffffffffffffff16815260200190815260200160002060009054906101000a900460ff161562000204576040517f08c379a0000000000000000000000000000000000000000000000000000000008152600401620001fb9062000947565b60405180910390fd5b60018060008373ffffffffffffffffffffffffffffffffffffffff1673ffffffffffffffffffffffffffffffffffffffff16815260200190815260200160002060006101000a81548160ff0219169083151502179055506000819080600181540180825580915050600190039060005260206000200160009091909190916101000a81548173ffffffffffffffffffffffffffffffffffffffff021916908373ffffffffffffffffffffffffffffffffffffffff160217905550508080620002cc9062000998565b915050620000d5565b50806002819055508260059080519060200190620002f5929190620002ff565b5050505062000a4b565b8280546200030d9062000a15565b90600052602060002090601f0160209004810192826200033157600085556200037d565b82601f106200034c57805160ff19168380011785556200037d565b828001600101855582156200037d579182015b828111156200037c5782518255916020019190600101906200035f565b5b5090506200038c919062000390565b5090565b5b80821115620003ab57600081600090555060010162000391565b5090565b6000604051905090565b600080fd5b600080fd5b600080fd5b600080fd5b6000601f19601f8301169050919050565b7f4e487b7100000000000000000000000000000000000000000000000000000000600052604160045260246000fd5b6200041882620003cd565b810181811067ffffffffffffffff821117156200043a5762000439620003de565b5b80604052505050565b60006200044f620003af565b90506200045d82826200040d565b919050565b600067ffffffffffffffff82111562000480576200047f620003de565b5b6200048b82620003cd565b9050602081019050919050565b60005b83811015620004b85780820151818401526020810190506200049b565b83811115620004c8576000848401525b50505050565b6000620004e5620004df8462000462565b62000443565b905082815260208101848484011115620005045762000503620003c8565b5b6200051184828562000498565b509392505050565b600082601f830112620005315762000530620003c3565b5b815162000543848260208601620004ce565b91505092915050565b600067ffffffffffffffff8211156200056a5762000569620003de565b5b602082029050602081019050919050565b600080fd5b600073ffffffffffffffffffffffffffffffffffffffff82169050919050565b6000620005ad8262000580565b9050919050565b620005bf81620005a0565b8114620005cb57600080fd5b50565b600081519050620005df81620005b4565b92915050565b6000620005fc620005f6846200054c565b62000443565b905080838252602082019050602084028301858111156200062257620006216200057b565b5b835b818110156200064f57806200063a8882620005ce565b84526020840193505060208101905062000624565b5050509392505050565b600082601f830112620006715762000670620003c3565b5b815162000683848260208601620005e5565b91505092915050565b6000819050919050565b620006a1816200068c565b8114620006ad57600080fd5b50565b600081519050620006c18162000696565b92915050565b600080600060608486031215620006e357620006e2620003b9565b5b600084015167ffffffffffffffff811115620007045762000703620003be565b5b620007128682870162000519565b935050602084015167ffffffffffffffff811115620007365762000735620003be565b5b620007448682870162000659565b92505060406200075786828701620006b0565b9150509250925092565b600082825260208201905092915050565b7f7265717569726564206f776e6572730000000000000000000000000000000000600082015250565b6000620007aa600f8362000761565b9150620007b78262000772565b602082019050919050565b60006020820190508181036000830152620007dd816200079b565b9050919050565b7f696e76616c696420617070726f76616c7356616c000000000000000000000000600082015250565b60006200081c60148362000761565b91506200082982620007e4565b602082019050919050565b600060208201905081810360008301526200084f816200080d565b9050919050565b7f4e487b7100000000000000000000000000000000000000000000000000000000600052603260045260246000fd5b7f696e76616c6964206f776e657200000000000000000000000000000000000000600082015250565b6000620008bd600d8362000761565b9150620008ca8262000885565b602082019050919050565b60006020820190508181036000830152620008f081620008ae565b9050919050565b7f6475706c6963617465206f776e65720000000000000000000000000000000000600082015250565b60006200092f600f8362000761565b91506200093c82620008f7565b602082019050919050565b60006020820190508181036000830152620009628162000920565b9050919050565b7f4e487b7100000000000000000000000000000000000000000000000000000000600052601160045260246000fd5b6000620009a5826200068c565b91507fffffffffffffffffffffffffffffffffffffffffffffffffffffffffffffffff821415620009db57620009da62000969565b5b600182019050919050565b7f4e487b7100000000000000000000000000000000000000000000000000000000600052602260045260246000fd5b6000600282049050600182168062000a2e57607f821691505b6020821081141562000a455762000a44620009e6565b5b50919050565b61239b8062000a5b6000396000f3fe6080604052600436106100e15760003560e01c806368b716421161007f578063b1e130fc11610059578063b1e130fc1461032c578063cf8d8ca014610355578063ea1d59c914610380578063fe77c9d1146103ab57610136565b806368b716421461028457806380f59a65146102ad5780639ace38c2146102ea57610136565b80632f54bf6e116100bb5780632f54bf6e146101b857806337f31440146101f55780633c6dc10e1461021e578063670c1f131461024757610136565b80630d61b5191461013b578063242232d1146101645780632e7700f01461018d57610136565b36610136573373ffffffffffffffffffffffffffffffffffffffff167fe1fffcc4923d04b559f4d29a8bfc6cda04eb5b0d3c460751c2402c5c5cc9109c3460405161012c91906118e6565b60405180910390a2005b600080fd5b34801561014757600080fd5b50610162600480360381019061015d9190611941565b6103d6565b005b34801561017057600080fd5b5061018b60048036038101906101869190611941565b610666565b005b34801561019957600080fd5b506101a2610842565b6040516101af91906118e6565b60405180910390f35b3480156101c457600080fd5b506101df60048036038101906101da91906119cc565b61084f565b6040516101ec9190611a14565b60405180910390f35b34801561020157600080fd5b5061021c60048036038101906102179190611c16565b61086f565b005b34801561022a57600080fd5b5061024560048036038101906102409190611cb5565b610ae9565b005b34801561025357600080fd5b5061026e60048036038101906102699190611941565b610d4d565b60405161027b9190611d04565b60405180910390f35b34801561029057600080fd5b506102ab60048036038101906102a691906119cc565b610d8c565b005b3480156102b957600080fd5b506102d460048036038101906102cf9190611d1f565b610ff6565b6040516102e19190611a14565b60405180910390f35b3480156102f657600080fd5b50610311600480360381019061030c9190611941565b611025565b60405161032396959493929190611e3c565b60405180910390f35b34801561033857600080fd5b50610353600480360381019061034e9190611941565b6111ae565b005b34801561036157600080fd5b5061036a61138a565b6040516103779190611eab565b60405180910390f35b34801561038c57600080fd5b50610395611418565b6040516103a291906118e6565b60405180910390f35b3480156103b757600080fd5b506103c061141e565b6040516103cd9190611f8b565b60405180910390f35b600160003373ffffffffffffffffffffffffffffffffffffffff1673ffffffffffffffffffffffffffffffffffffffff16815260200190815260200160002060009054906101000a900460ff16610459576040517feea91ff800000000000000000000000000000000000000000000000000000000815260040160405180910390fd5b806003805490508111156104a457806040517f1fa5e7c000000000000000000000000000000000000000000000000000000000815260040161049b91906118e6565b60405180910390fd5b6104ad826114ac565b6000600383815481106104c3576104c2611fad565b5b906000526020600020906006020190506002548160040154101561051c576040517f08c379a000000000000000000000000000000000000000000000000000000000815260040161051390612028565b60405180910390fd5b60018160050160006101000a81548160ff02191690831515021790555060008160010160009054906101000a900473ffffffffffffffffffffffffffffffffffffffff1673ffffffffffffffffffffffffffffffffffffffff1682600201548360030160405161058c9190612148565b60006040518083038185875af1925050503d80600081146105c9576040519150601f19603f3d011682016040523d82523d6000602084013e6105ce565b606091505b5050905080610612576040517f08c379a0000000000000000000000000000000000000000000000000000000008152600401610609906121ab565b60405180910390fd5b3373ffffffffffffffffffffffffffffffffffffffff167fde68f891ee7ee069827fbc78a4839662d30d252d31aec1c6c974929dae9162ec8560405161065891906118e6565b60405180910390a250505050565b600160003373ffffffffffffffffffffffffffffffffffffffff1673ffffffffffffffffffffffffffffffffffffffff16815260200190815260200160002060009054906101000a900460ff166106e9576040517feea91ff800000000000000000000000000000000000000000000000000000000815260040160405180910390fd5b8060038054905081111561073457806040517f1fa5e7c000000000000000000000000000000000000000000000000000000000815260040161072b91906118e6565b60405180910390fd5b61073d82611524565b610746826114ac565b60006003838154811061075c5761075b611fad565b5b90600052602060002090600602019050806004016000815480929190610781906121fa565b919050555060016004600085815260200190815260200160002060003373ffffffffffffffffffffffffffffffffffffffff1673ffffffffffffffffffffffffffffffffffffffff16815260200190815260200160002060006101000a81548160ff0219169083151502179055503373ffffffffffffffffffffffffffffffffffffffff167f3eda3167be1dafd5bc83527092caaff3780a03616a4fd3c5c0625da88f91167a8460405161083591906118e6565b60405180910390a2505050565b6000600380549050905090565b60016020528060005260406000206000915054906101000a900460ff1681565b600160003373ffffffffffffffffffffffffffffffffffffffff1673ffffffffffffffffffffffffffffffffffffffff16815260200190815260200160002060009054906101000a900460ff166108f2576040517feea91ff800000000000000000000000000000000000000000000000000000000815260040160405180910390fd5b600073ffffffffffffffffffffffffffffffffffffffff168373ffffffffffffffffffffffffffffffffffffffff161415610962576040517f08c379a00000000000000000000000000000000000000000000000000000000081526004016109599061228f565b60405180910390fd5b60008080549050905060036040518060c001604052808781526020018673ffffffffffffffffffffffffffffffffffffffff1681526020018581526020018481526020016000815260200160001515815250908060018154018082558091505060019003906000526020600020906006020160009091909190915060008201518160000190805190602001906109f99291906117a4565b5060208201518160010160006101000a81548173ffffffffffffffffffffffffffffffffffffffff021916908373ffffffffffffffffffffffffffffffffffffffff160217905550604082015181600201556060820151816003019080519060200190610a6792919061182a565b506080820151816004015560a08201518160050160006101000a81548160ff02191690831515021790555050503373ffffffffffffffffffffffffffffffffffffffff167f8dfa4a39b973cacc42c5d14d9461d66fd1fda5ea696f7d2a3c44fd9d7f11d04f82604051610ada91906118e6565b60405180910390a25050505050565b81600073ffffffffffffffffffffffffffffffffffffffff168173ffffffffffffffffffffffffffffffffffffffff161415610b5c57806040517fb20f76e3000000000000000000000000000000000000000000000000000000008152600401610b539190611d04565b60405180910390fd5b8160008111158015610b72575060008054905081115b15610bb457806040517f64e6215a000000000000000000000000000000000000000000000000000000008152600401610bab91906118e6565b60405180910390fd5b3073ffffffffffffffffffffffffffffffffffffffff163373ffffffffffffffffffffffffffffffffffffffff1614610c19576040517f3d693ada00000000000000000000000000000000000000000000000000000000815260040160405180910390fd5b600160008573ffffffffffffffffffffffffffffffffffffffff1673ffffffffffffffffffffffffffffffffffffffff16815260200190815260200160002060009054906101000a900460ff16610c9c576040517feea91ff800000000000000000000000000000000000000000000000000000000815260040160405180910390fd5b60005b600080549050811015610d3f578473ffffffffffffffffffffffffffffffffffffffff1660008281548110610cd757610cd6611fad565b5b9060005260206000200160009054906101000a900473ffffffffffffffffffffffffffffffffffffffff1673ffffffffffffffffffffffffffffffffffffffff161415610d2c57610d27816115c9565b610d3f565b8080610d37906121fa565b915050610c9f565b508260028190555050505050565b60008181548110610d5d57600080fd5b906000526020600020016000915054906101000a900473ffffffffffffffffffffffffffffffffffffffff1681565b80600073ffffffffffffffffffffffffffffffffffffffff168173ffffffffffffffffffffffffffffffffffffffff161415610dff57806040517fb20f76e3000000000000000000000000000000000000000000000000000000008152600401610df69190611d04565b60405180910390fd5b81600160008273ffffffffffffffffffffffffffffffffffffffff1673ffffffffffffffffffffffffffffffffffffffff16815260200190815260200160002060009054906101000a900460ff1615610e8f57806040517f8beb928c000000000000000000000000000000000000000000000000000000008152600401610e869190611d04565b60405180910390fd5b3073ffffffffffffffffffffffffffffffffffffffff163373ffffffffffffffffffffffffffffffffffffffff1614610ef4576040517f3d693ada00000000000000000000000000000000000000000000000000000000815260040160405180910390fd5b60018060008573ffffffffffffffffffffffffffffffffffffffff1673ffffffffffffffffffffffffffffffffffffffff16815260200190815260200160002060006101000a81548160ff0219169083151502179055506000839080600181540180825580915050600190039060005260206000200160009091909190916101000a81548173ffffffffffffffffffffffffffffffffffffffff021916908373ffffffffffffffffffffffffffffffffffffffff1602179055508273ffffffffffffffffffffffffffffffffffffffff167f3edd90e7770f06fafde38004653b33870066c33bfc923ff6102acd601f85dfbc60405160405180910390a2505050565b60046020528160005260406000206020528060005260406000206000915091509054906101000a900460ff1681565b6003818154811061103557600080fd5b906000526020600020906006020160009150905080600001805461105890612077565b80601f016020809104026020016040519081016040528092919081815260200182805461108490612077565b80156110d15780601f106110a6576101008083540402835291602001916110d1565b820191906000526020600020905b8154815290600101906020018083116110b457829003601f168201915b5050505050908060010160009054906101000a900473ffffffffffffffffffffffffffffffffffffffff169080600201549080600301805461111290612077565b80601f016020809104026020016040519081016040528092919081815260200182805461113e90612077565b801561118b5780601f106111605761010080835404028352916020019161118b565b820191906000526020600020905b81548152906001019060200180831161116e57829003601f168201915b5050505050908060040154908060050160009054906101000a900460ff16905086565b600160003373ffffffffffffffffffffffffffffffffffffffff1673ffffffffffffffffffffffffffffffffffffffff16815260200190815260200160002060009054906101000a900460ff16611231576040517feea91ff800000000000000000000000000000000000000000000000000000000815260040160405180910390fd5b8060038054905081111561127c57806040517f1fa5e7c000000000000000000000000000000000000000000000000000000000815260040161127391906118e6565b60405180910390fd5b61128582611700565b61128e826114ac565b6000600383815481106112a4576112a3611fad565b5b906000526020600020906006020190508060040160008154809291906112c9906122af565b919050555060006004600085815260200190815260200160002060003373ffffffffffffffffffffffffffffffffffffffff1673ffffffffffffffffffffffffffffffffffffffff16815260200190815260200160002060006101000a81548160ff0219169083151502179055503373ffffffffffffffffffffffffffffffffffffffff167f8ac0ec85d3817644471cdaff11fb456b57808050d06be464ecb80960c69708268460405161137d91906118e6565b60405180910390a2505050565b6005805461139790612077565b80601f01602080910402602001604051908101604052809291908181526020018280546113c390612077565b80156114105780601f106113e557610100808354040283529160200191611410565b820191906000526020600020905b8154815290600101906020018083116113f357829003601f168201915b505050505081565b60025481565b606060008054806020026020016040519081016040528092919081815260200182805480156114a257602002820191906000526020600020905b8160009054906101000a900473ffffffffffffffffffffffffffffffffffffffff1673ffffffffffffffffffffffffffffffffffffffff1681526020019060010190808311611458575b5050505050905090565b600381815481106114c0576114bf611fad565b5b906000526020600020906006020160050160009054906101000a900460ff161561152157806040517f1686a22100000000000000000000000000000000000000000000000000000000815260040161151891906118e6565b60405180910390fd5b50565b6004600082815260200190815260200160002060003373ffffffffffffffffffffffffffffffffffffffff1673ffffffffffffffffffffffffffffffffffffffff16815260200190815260200160002060009054906101000a900460ff16156115c65733816040517f2636c6050000000000000000000000000000000000000000000000000000000081526004016115bd9291906122d9565b60405180910390fd5b50565b600081815481106115dd576115dc611fad565b5b9060005260206000200160006101000a81549073ffffffffffffffffffffffffffffffffffffffff02191690556000600160008054905061161e9190612302565b8154811061162f5761162e611fad565b5b9060005260206000200160009054906101000a900473ffffffffffffffffffffffffffffffffffffffff166000828154811061166e5761166d611fad565b5b9060005260206000200160006101000a81548173ffffffffffffffffffffffffffffffffffffffff021916908373ffffffffffffffffffffffffffffffffffffffff16021790555060008054806116c8576116c7612336565b5b6001900381819060005260206000200160006101000a81549073ffffffffffffffffffffffffffffffffffffffff0219169055905550565b6004600082815260200190815260200160002060003373ffffffffffffffffffffffffffffffffffffffff1673ffffffffffffffffffffffffffffffffffffffff16815260200190815260200160002060009054906101000a900460ff166117a15733816040517f8ae6d3470000000000000000000000000000000000000000000000000000000081526004016117989291906122d9565b60405180910390fd5b50565b8280546117b090612077565b90600052602060002090601f0160209004810192826117d25760008555611819565b82601f106117eb57805160ff1916838001178555611819565b82800160010185558215611819579182015b828111156118185782518255916020019190600101906117fd565b5b50905061182691906118b0565b5090565b82805461183690612077565b90600052602060002090601f016020900481019282611858576000855561189f565b82601f1061187157805160ff191683800117855561189f565b8280016001018555821561189f579182015b8281111561189e578251825591602001919060010190611883565b5b5090506118ac91906118b0565b5090565b5b808211156118c95760008160009055506001016118b1565b5090565b6000819050919050565b6118e0816118cd565b82525050565b60006020820190506118fb60008301846118d7565b92915050565b6000604051905090565b600080fd5b600080fd5b61191e816118cd565b811461192957600080fd5b50565b60008135905061193b81611915565b92915050565b6000602082840312156119575761195661190b565b5b60006119658482850161192c565b91505092915050565b600073ffffffffffffffffffffffffffffffffffffffff82169050919050565b60006119998261196e565b9050919050565b6119a98161198e565b81146119b457600080fd5b50565b6000813590506119c6816119a0565b92915050565b6000602082840312156119e2576119e161190b565b5b60006119f0848285016119b7565b91505092915050565b60008115159050919050565b611a0e816119f9565b82525050565b6000602082019050611a296000830184611a05565b92915050565b600080fd5b600080fd5b6000601f19601f8301169050919050565b7f4e487b7100000000000000000000000000000000000000000000000000000000600052604160045260246000fd5b611a8282611a39565b810181811067ffffffffffffffff82111715611aa157611aa0611a4a565b5b80604052505050565b6000611ab4611901565b9050611ac08282611a79565b919050565b600067ffffffffffffffff821115611ae057611adf611a4a565b5b611ae982611a39565b9050602081019050919050565b82818337600083830152505050565b6000611b18611b1384611ac5565b611aaa565b905082815260208101848484011115611b3457611b33611a34565b5b611b3f848285611af6565b509392505050565b600082601f830112611b5c57611b5b611a2f565b5b8135611b6c848260208601611b05565b91505092915050565b600067ffffffffffffffff821115611b9057611b8f611a4a565b5b611b9982611a39565b9050602081019050919050565b6000611bb9611bb484611b75565b611aaa565b905082815260208101848484011115611bd557611bd4611a34565b5b611be0848285611af6565b509392505050565b600082601f830112611bfd57611bfc611a2f565b5b8135611c0d848260208601611ba6565b91505092915050565b60008060008060808587031215611c3057611c2f61190b565b5b600085013567ffffffffffffffff811115611c4e57611c4d611910565b5b611c5a87828801611b47565b9450506020611c6b878288016119b7565b9350506040611c7c8782880161192c565b925050606085013567ffffffffffffffff811115611c9d57611c9c611910565b5b611ca987828801611be8565b91505092959194509250565b60008060408385031215611ccc57611ccb61190b565b5b6000611cda858286016119b7565b9250506020611ceb8582860161192c565b9150509250929050565b611cfe8161198e565b82525050565b6000602082019050611d196000830184611cf5565b92915050565b60008060408385031215611d3657611d3561190b565b5b6000611d448582860161192c565b9250506020611d55858286016119b7565b9150509250929050565b600081519050919050565b600082825260208201905092915050565b60005b83811015611d99578082015181840152602081019050611d7e565b83811115611da8576000848401525b50505050565b6000611db982611d5f565b611dc38185611d6a565b9350611dd3818560208601611d7b565b611ddc81611a39565b840191505092915050565b600081519050919050565b600082825260208201905092915050565b6000611e0e82611de7565b611e188185611df2565b9350611e28818560208601611d7b565b611e3181611a39565b840191505092915050565b600060c0820190508181036000830152611e568189611dae565b9050611e656020830188611cf5565b611e7260408301876118d7565b8181036060830152611e848186611e03565b9050611e9360808301856118d7565b611ea060a0830184611a05565b979650505050505050565b60006020820190508181036000830152611ec58184611dae565b905092915050565b600081519050919050565b600082825260208201905092915050565b6000819050602082019050919050565b611f028161198e565b82525050565b6000611f148383611ef9565b60208301905092915050565b6000602082019050919050565b6000611f3882611ecd565b611f428185611ed8565b9350611f4d83611ee9565b8060005b83811015611f7e578151611f658882611f08565b9750611f7083611f20565b925050600181019050611f51565b5085935050505092915050565b60006020820190508181036000830152611fa58184611f2d565b905092915050565b7f4e487b7100000000000000000000000000000000000000000000000000000000600052603260045260246000fd5b7f63616e6e6f742065786563757465207478000000000000000000000000000000600082015250565b6000612012601183611d6a565b915061201d82611fdc565b602082019050919050565b6000602082019050818103600083015261204181612005565b9050919050565b7f4e487b7100000000000000000000000000000000000000000000000000000000600052602260045260246000fd5b6000600282049050600182168061208f57607f821691505b602082108114156120a3576120a2612048565b5b50919050565b600081905092915050565b60008190508160005260206000209050919050565b600081546120d681612077565b6120e081866120a9565b945060018216600081146120fb576001811461210c5761213f565b60ff1983168652818601935061213f565b612115856120b4565b60005b8381101561213757815481890152600182019150602081019050612118565b838801955050505b50505092915050565b600061215482846120c9565b915081905092915050565b7f7478206661696c65640000000000000000000000000000000000000000000000600082015250565b6000612195600983611d6a565b91506121a08261215f565b602082019050919050565b600060208201905081810360008301526121c481612188565b9050919050565b7f4e487b7100000000000000000000000000000000000000000000000000000000600052601160045260246000fd5b6000612205826118cd565b91507fffffffffffffffffffffffffffffffffffffffffffffffffffffffffffffffff821415612238576122376121cb565b5b600182019050919050565b7f696e76616c696420746f00000000000000000000000000000000000000000000600082015250565b6000612279600a83611d6a565b915061228482612243565b602082019050919050565b600060208201905081810360008301526122a88161226c565b9050919050565b60006122ba826118cd565b915060008214156122ce576122cd6121cb565b5b600182039050919050565b60006040820190506122ee6000830185611cf5565b6122fb60208301846118d7565b9392505050565b600061230d826118cd565b9150612318836118cd565b92508282101561232b5761232a6121cb565b5b828203905092915050565b7f4e487b7100000000000000000000000000000000000000000000000000000000600052603160045260246000fdfea26469706673582212207d5c1e2132ac91de3a0a62e3cac2ca42560466b9b078f9f0adc0bdc0bc6d314064736f6c63430008090033a26469706673582212203a3e06a85969c3c51194c0caef5dc5f7f278a54d12ed3749b59f659ceef9f92f64736f6c63430008090033",
  "devdoc": {
    "kind": "dev",
    "methods": {},
    "version": 1
  },
  "userdoc": {
    "kind": "user",
    "methods": {},
    "version": 1
  },
  "storageLayout": {
    "storage": [
      {
        "astId": 721,
        "contract": "contracts/MultiSigFactory.sol:MultiSigFactory",
        "label": "multiSigs",
        "offset": 0,
        "slot": "0",
        "type": "t_array(t_contract(MultiSig)692)dyn_storage"
      }
    ],
    "types": {
      "t_array(t_contract(MultiSig)692)dyn_storage": {
        "base": "t_contract(MultiSig)692",
        "encoding": "dynamic_array",
        "label": "contract MultiSig[]",
        "numberOfBytes": "32"
      },
      "t_contract(MultiSig)692": {
        "encoding": "inplace",
        "label": "contract MultiSig",
        "numberOfBytes": "20"
      }
    }
  }
}