{
  "address": "0xe7f1725E7734CE288F8367e1Bb143E90bb3F0512",
  "abi": [
    {
      "inputs": [
        {
          "internalType": "string",
          "name": "_walletName",
          "type": "string"
        },
        {
          "internalType": "address[]",
          "name": "_owners",
          "type": "address[]"
        },
        {
          "internalType": "uint256",
          "name": "_approvalsRequired",
          "type": "uint256"
        }
      ],
      "stateMutability": "nonpayable",
      "type": "constructor"
    },
    {
      "inputs": [
        {
          "internalType": "address",
          "name": "_newOwner",
          "type": "address"
        }
      ],
      "name": "AlreadyOwner",
      "type": "error"
    },
    {
      "inputs": [
        {
          "internalType": "uint256",
          "name": "_value",
          "type": "uint256"
        }
      ],
      "name": "InvalidApprovalsValue",
      "type": "error"
    },
    {
      "inputs": [
        {
          "internalType": "address",
          "name": "_owner",
          "type": "address"
        }
      ],
      "name": "InvalidOwner",
      "type": "error"
    },
    {
      "inputs": [
        {
          "internalType": "uint256",
          "name": "_txnId",
          "type": "uint256"
        }
      ],
      "name": "InvalidTxnId",
      "type": "error"
    },
    {
      "inputs": [],
      "name": "NotAllowed",
      "type": "error"
    },
    {
      "inputs": [],
      "name": "NotAnOwner",
      "type": "error"
    },
    {
      "inputs": [
        {
          "internalType": "uint256",
          "name": "_txnId",
          "type": "uint256"
        }
      ],
      "name": "NotEnoughApprovals",
      "type": "error"
    },
    {
      "inputs": [
        {
          "internalType": "address",
          "name": "_owner",
          "type": "address"
        },
        {
          "internalType": "uint256",
          "name": "_txnId",
          "type": "uint256"
        }
      ],
      "name": "TxnAlreadyConfirmed",
      "type": "error"
    },
    {
      "inputs": [
        {
          "internalType": "uint256",
          "name": "_txnId",
          "type": "uint256"
        }
      ],
      "name": "TxnAlreadyExecuted",
      "type": "error"
    },
    {
      "inputs": [
        {
          "internalType": "address",
          "name": "_owner",
          "type": "address"
        },
        {
          "internalType": "uint256",
          "name": "_txnId",
          "type": "uint256"
        }
      ],
      "name": "TxnNotConfirmed",
      "type": "error"
    },
    {
      "anonymous": false,
      "inputs": [
        {
          "indexed": true,
          "internalType": "address",
          "name": "owner",
          "type": "address"
        },
        {
          "indexed": false,
          "internalType": "uint256",
          "name": "txnId",
          "type": "uint256"
        }
      ],
      "name": "ApprovedProposal",
      "type": "event"
    },
    {
      "anonymous": false,
      "inputs": [
        {
          "indexed": true,
          "internalType": "address",
          "name": "sender",
          "type": "address"
        },
        {
          "indexed": false,
          "internalType": "uint256",
          "name": "value",
          "type": "uint256"
        }
      ],
      "name": "Deposit",
      "type": "event"
    },
    {
      "anonymous": false,
      "inputs": [
        {
          "indexed": true,
          "internalType": "address",
          "name": "owner",
          "type": "address"
        },
        {
          "indexed": false,
          "internalType": "uint256",
          "name": "txnId",
          "type": "uint256"
        }
      ],
      "name": "ExecutedProposal",
      "type": "event"
    },
    {
      "anonymous": false,
      "inputs": [
        {
          "indexed": true,
          "internalType": "address",
          "name": "owner",
          "type": "address"
        }
      ],
      "name": "NewOwner",
      "type": "event"
    },
    {
      "anonymous": false,
      "inputs": [
        {
          "indexed": true,
          "internalType": "address",
          "name": "owner",
          "type": "address"
        },
        {
          "indexed": false,
          "internalType": "uint256",
          "name": "txnId",
          "type": "uint256"
        }
      ],
      "name": "NewProposal",
      "type": "event"
    },
    {
      "anonymous": false,
      "inputs": [
        {
          "indexed": true,
          "internalType": "address",
          "name": "owner",
          "type": "address"
        },
        {
          "indexed": false,
          "internalType": "uint256",
          "name": "newApprovalVal",
          "type": "uint256"
        }
      ],
      "name": "RemovedOwner",
      "type": "event"
    },
    {
      "anonymous": false,
      "inputs": [
        {
          "indexed": true,
          "internalType": "address",
          "name": "owner",
          "type": "address"
        },
        {
          "indexed": false,
          "internalType": "uint256",
          "name": "txnId",
          "type": "uint256"
        }
      ],
      "name": "RevokedApproval",
      "type": "event"
    },
    {
      "inputs": [
        {
          "internalType": "address",
          "name": "_newOwner",
          "type": "address"
        }
      ],
      "name": "addNewOwnerProposal",
      "outputs": [],
      "stateMutability": "nonpayable",
      "type": "function"
    },
    {
      "inputs": [],
      "name": "approvalsRequired",
      "outputs": [
        {
          "internalType": "uint256",
          "name": "",
          "type": "uint256"
        }
      ],
      "stateMutability": "view",
      "type": "function"
    },
    {
      "inputs": [
        {
          "internalType": "uint256",
          "name": "_txnIdx",
          "type": "uint256"
        }
      ],
      "name": "approveTransaction",
      "outputs": [],
      "stateMutability": "nonpayable",
      "type": "function"
    },
    {
      "inputs": [
        {
          "internalType": "uint256",
          "name": "_txnIndex",
          "type": "uint256"
        }
      ],
      "name": "executeProposal",
      "outputs": [],
      "stateMutability": "nonpayable",
      "type": "function"
    },
    {
      "inputs": [],
      "name": "getMultiSigOwners",
      "outputs": [
        {
          "internalType": "address[]",
          "name": "allOwners",
          "type": "address[]"
        }
      ],
      "stateMutability": "view",
      "type": "function"
    },
    {
      "inputs": [],
      "name": "getTransactionCount",
      "outputs": [
        {
          "internalType": "uint256",
          "name": "",
          "type": "uint256"
        }
      ],
      "stateMutability": "view",
      "type": "function"
    },
    {
      "inputs": [
        {
          "internalType": "uint256",
          "name": "",
          "type": "uint256"
        },
        {
          "internalType": "address",
          "name": "",
          "type": "address"
        }
      ],
      "name": "isConfirmed",
      "outputs": [
        {
          "internalType": "bool",
          "name": "",
          "type": "bool"
        }
      ],
      "stateMutability": "view",
      "type": "function"
    },
    {
      "inputs": [
        {
          "internalType": "address",
          "name": "",
          "type": "address"
        }
      ],
      "name": "isOwner",
      "outputs": [
        {
          "internalType": "bool",
          "name": "",
          "type": "bool"
        }
      ],
      "stateMutability": "view",
      "type": "function"
    },
    {
      "inputs": [
        {
          "internalType": "address",
          "name": "_ownerToRemove",
          "type": "address"
        },
        {
          "internalType": "uint256",
          "name": "_newApprovalsRequired",
          "type": "uint256"
        }
      ],
      "name": "removeOwnerProposal",
      "outputs": [],
      "stateMutability": "nonpayable",
      "type": "function"
    },
    {
      "inputs": [
        {
          "internalType": "uint256",
          "name": "_txnIdx",
          "type": "uint256"
        }
      ],
      "name": "revokeApproval",
      "outputs": [],
      "stateMutability": "nonpayable",
      "type": "function"
    },
    {
      "inputs": [
        {
          "internalType": "string",
          "name": "_name",
          "type": "string"
        },
        {
          "internalType": "address",
          "name": "_to",
          "type": "address"
        },
        {
          "internalType": "uint256",
          "name": "_value",
          "type": "uint256"
        },
        {
          "internalType": "bytes",
          "name": "_data",
          "type": "bytes"
        }
      ],
      "name": "submitProposal",
      "outputs": [],
      "stateMutability": "nonpayable",
      "type": "function"
    },
    {
      "inputs": [
        {
          "internalType": "uint256",
          "name": "",
          "type": "uint256"
        }
      ],
      "name": "transactions",
      "outputs": [
        {
          "internalType": "string",
          "name": "name",
          "type": "string"
        },
        {
          "internalType": "address",
          "name": "to",
          "type": "address"
        },
        {
          "internalType": "uint256",
          "name": "value",
          "type": "uint256"
        },
        {
          "internalType": "bytes",
          "name": "data",
          "type": "bytes"
        },
        {
          "internalType": "uint256",
          "name": "confirmations",
          "type": "uint256"
        },
        {
          "internalType": "bool",
          "name": "executed",
          "type": "bool"
        }
      ],
      "stateMutability": "view",
      "type": "function"
    },
    {
      "inputs": [],
      "name": "walletName",
      "outputs": [
        {
          "internalType": "string",
          "name": "",
          "type": "string"
        }
      ],
      "stateMutability": "view",
      "type": "function"
    },
    {
      "inputs": [
        {
          "internalType": "uint256",
          "name": "",
          "type": "uint256"
        }
      ],
      "name": "walletOwners",
      "outputs": [
        {
          "internalType": "address",
          "name": "",
          "type": "address"
        }
      ],
      "stateMutability": "view",
      "type": "function"
    },
    {
      "stateMutability": "payable",
      "type": "receive"
    }
  ],
  "transactionHash": "0xf035513ecee124fb0da47a60fca5552ff7f8a09c211eaf6e3bd1f72d293a1f91",
  "args": [
    "someName",
    [
      "0xf39Fd6e51aad88F6F4ce6aB8827279cffFb92266"
    ],
    1
  ],
  "numDeployments": 1,
  "solcInputHash": "f121e828de46e9c244bb7ec5bcd1b968",
  "bytecode": "0x60806040523480156200001157600080fd5b5060405162002cf438038062002cf4833981810160405281019062000037919062000637565b60008251116200007e576040517f08c379a0000000000000000000000000000000000000000000000000000000008152600401620000759062000732565b60405180910390fd5b60008111801562000090575081518111155b620000d2576040517f08c379a0000000000000000000000000000000000000000000000000000000008152600401620000c990620007a4565b60405180910390fd5b60005b825181101562000245576000838281518110620000f757620000f6620007c6565b5b60200260200101519050600073ffffffffffffffffffffffffffffffffffffffff168173ffffffffffffffffffffffffffffffffffffffff16141562000174576040517f08c379a00000000000000000000000000000000000000000000000000000000081526004016200016b9062000845565b60405180910390fd5b60018060008373ffffffffffffffffffffffffffffffffffffffff1673ffffffffffffffffffffffffffffffffffffffff16815260200190815260200160002060006101000a81548160ff0219169083151502179055506000819080600181540180825580915050600190039060005260206000200160009091909190916101000a81548173ffffffffffffffffffffffffffffffffffffffff021916908373ffffffffffffffffffffffffffffffffffffffff1602179055505080806200023c9062000896565b915050620000d5565b50806002819055508260059080519060200190620002659291906200026f565b5050505062000949565b8280546200027d9062000913565b90600052602060002090601f016020900481019282620002a15760008555620002ed565b82601f10620002bc57805160ff1916838001178555620002ed565b82800160010185558215620002ed579182015b82811115620002ec578251825591602001919060010190620002cf565b5b509050620002fc919062000300565b5090565b5b808211156200031b57600081600090555060010162000301565b5090565b6000604051905090565b600080fd5b600080fd5b600080fd5b600080fd5b6000601f19601f8301169050919050565b7f4e487b7100000000000000000000000000000000000000000000000000000000600052604160045260246000fd5b62000388826200033d565b810181811067ffffffffffffffff82111715620003aa57620003a96200034e565b5b80604052505050565b6000620003bf6200031f565b9050620003cd82826200037d565b919050565b600067ffffffffffffffff821115620003f057620003ef6200034e565b5b620003fb826200033d565b9050602081019050919050565b60005b83811015620004285780820151818401526020810190506200040b565b8381111562000438576000848401525b50505050565b6000620004556200044f84620003d2565b620003b3565b90508281526020810184848401111562000474576200047362000338565b5b6200048184828562000408565b509392505050565b600082601f830112620004a157620004a062000333565b5b8151620004b38482602086016200043e565b91505092915050565b600067ffffffffffffffff821115620004da57620004d96200034e565b5b602082029050602081019050919050565b600080fd5b600073ffffffffffffffffffffffffffffffffffffffff82169050919050565b60006200051d82620004f0565b9050919050565b6200052f8162000510565b81146200053b57600080fd5b50565b6000815190506200054f8162000524565b92915050565b60006200056c6200056684620004bc565b620003b3565b90508083825260208201905060208402830185811115620005925762000591620004eb565b5b835b81811015620005bf5780620005aa88826200053e565b84526020840193505060208101905062000594565b5050509392505050565b600082601f830112620005e157620005e062000333565b5b8151620005f384826020860162000555565b91505092915050565b6000819050919050565b6200061181620005fc565b81146200061d57600080fd5b50565b600081519050620006318162000606565b92915050565b60008060006060848603121562000653576200065262000329565b5b600084015167ffffffffffffffff8111156200067457620006736200032e565b5b620006828682870162000489565b935050602084015167ffffffffffffffff811115620006a657620006a56200032e565b5b620006b486828701620005c9565b9250506040620006c78682870162000620565b9150509250925092565b600082825260208201905092915050565b7f7265717569726564206f776e6572730000000000000000000000000000000000600082015250565b60006200071a600f83620006d1565b91506200072782620006e2565b602082019050919050565b600060208201905081810360008301526200074d816200070b565b9050919050565b7f696e76616c696420617070726f76616c7356616c000000000000000000000000600082015250565b60006200078c601483620006d1565b9150620007998262000754565b602082019050919050565b60006020820190508181036000830152620007bf816200077d565b9050919050565b7f4e487b7100000000000000000000000000000000000000000000000000000000600052603260045260246000fd5b7f696e76616c6964206f776e657200000000000000000000000000000000000000600082015250565b60006200082d600d83620006d1565b91506200083a82620007f5565b602082019050919050565b6000602082019050818103600083015262000860816200081e565b9050919050565b7f4e487b7100000000000000000000000000000000000000000000000000000000600052601160045260246000fd5b6000620008a382620005fc565b91507fffffffffffffffffffffffffffffffffffffffffffffffffffffffffffffffff821415620008d957620008d862000867565b5b600182019050919050565b7f4e487b7100000000000000000000000000000000000000000000000000000000600052602260045260246000fd5b600060028204905060018216806200092c57607f821691505b60208210811415620009435762000942620008e4565b5b50919050565b61239b80620009596000396000f3fe6080604052600436106100e15760003560e01c806368b716421161007f578063b1e130fc11610059578063b1e130fc1461032c578063cf8d8ca014610355578063ea1d59c914610380578063fe77c9d1146103ab57610136565b806368b716421461028457806380f59a65146102ad5780639ace38c2146102ea57610136565b80632f54bf6e116100bb5780632f54bf6e146101b857806337f31440146101f55780633c6dc10e1461021e578063670c1f131461024757610136565b80630d61b5191461013b578063242232d1146101645780632e7700f01461018d57610136565b36610136573373ffffffffffffffffffffffffffffffffffffffff167fe1fffcc4923d04b559f4d29a8bfc6cda04eb5b0d3c460751c2402c5c5cc9109c3460405161012c91906118e6565b60405180910390a2005b600080fd5b34801561014757600080fd5b50610162600480360381019061015d9190611941565b6103d6565b005b34801561017057600080fd5b5061018b60048036038101906101869190611941565b610666565b005b34801561019957600080fd5b506101a2610842565b6040516101af91906118e6565b60405180910390f35b3480156101c457600080fd5b506101df60048036038101906101da91906119cc565b61084f565b6040516101ec9190611a14565b60405180910390f35b34801561020157600080fd5b5061021c60048036038101906102179190611c16565b61086f565b005b34801561022a57600080fd5b5061024560048036038101906102409190611cb5565b610ae9565b005b34801561025357600080fd5b5061026e60048036038101906102699190611941565b610d4d565b60405161027b9190611d04565b60405180910390f35b34801561029057600080fd5b506102ab60048036038101906102a691906119cc565b610d8c565b005b3480156102b957600080fd5b506102d460048036038101906102cf9190611d1f565b610ff6565b6040516102e19190611a14565b60405180910390f35b3480156102f657600080fd5b50610311600480360381019061030c9190611941565b611025565b60405161032396959493929190611e3c565b60405180910390f35b34801561033857600080fd5b50610353600480360381019061034e9190611941565b6111ae565b005b34801561036157600080fd5b5061036a61138a565b6040516103779190611eab565b60405180910390f35b34801561038c57600080fd5b50610395611418565b6040516103a291906118e6565b60405180910390f35b3480156103b757600080fd5b506103c061141e565b6040516103cd9190611f8b565b60405180910390f35b600160003373ffffffffffffffffffffffffffffffffffffffff1673ffffffffffffffffffffffffffffffffffffffff16815260200190815260200160002060009054906101000a900460ff16610459576040517feea91ff800000000000000000000000000000000000000000000000000000000815260040160405180910390fd5b806003805490508111156104a457806040517f1fa5e7c000000000000000000000000000000000000000000000000000000000815260040161049b91906118e6565b60405180910390fd5b6104ad826114ac565b6000600383815481106104c3576104c2611fad565b5b906000526020600020906006020190506002548160040154101561051c576040517f08c379a000000000000000000000000000000000000000000000000000000000815260040161051390612028565b60405180910390fd5b60018160050160006101000a81548160ff02191690831515021790555060008160010160009054906101000a900473ffffffffffffffffffffffffffffffffffffffff1673ffffffffffffffffffffffffffffffffffffffff1682600201548360030160405161058c9190612148565b60006040518083038185875af1925050503d80600081146105c9576040519150601f19603f3d011682016040523d82523d6000602084013e6105ce565b606091505b5050905080610612576040517f08c379a0000000000000000000000000000000000000000000000000000000008152600401610609906121ab565b60405180910390fd5b3373ffffffffffffffffffffffffffffffffffffffff167fde68f891ee7ee069827fbc78a4839662d30d252d31aec1c6c974929dae9162ec8560405161065891906118e6565b60405180910390a250505050565b600160003373ffffffffffffffffffffffffffffffffffffffff1673ffffffffffffffffffffffffffffffffffffffff16815260200190815260200160002060009054906101000a900460ff166106e9576040517feea91ff800000000000000000000000000000000000000000000000000000000815260040160405180910390fd5b8060038054905081111561073457806040517f1fa5e7c000000000000000000000000000000000000000000000000000000000815260040161072b91906118e6565b60405180910390fd5b61073d82611524565b610746826114ac565b60006003838154811061075c5761075b611fad565b5b90600052602060002090600602019050806004016000815480929190610781906121fa565b919050555060016004600085815260200190815260200160002060003373ffffffffffffffffffffffffffffffffffffffff1673ffffffffffffffffffffffffffffffffffffffff16815260200190815260200160002060006101000a81548160ff0219169083151502179055503373ffffffffffffffffffffffffffffffffffffffff167f3eda3167be1dafd5bc83527092caaff3780a03616a4fd3c5c0625da88f91167a8460405161083591906118e6565b60405180910390a2505050565b6000600380549050905090565b60016020528060005260406000206000915054906101000a900460ff1681565b600160003373ffffffffffffffffffffffffffffffffffffffff1673ffffffffffffffffffffffffffffffffffffffff16815260200190815260200160002060009054906101000a900460ff166108f2576040517feea91ff800000000000000000000000000000000000000000000000000000000815260040160405180910390fd5b600073ffffffffffffffffffffffffffffffffffffffff168373ffffffffffffffffffffffffffffffffffffffff161415610962576040517f08c379a00000000000000000000000000000000000000000000000000000000081526004016109599061228f565b60405180910390fd5b60008080549050905060036040518060c001604052808781526020018673ffffffffffffffffffffffffffffffffffffffff1681526020018581526020018481526020016000815260200160001515815250908060018154018082558091505060019003906000526020600020906006020160009091909190915060008201518160000190805190602001906109f99291906117a4565b5060208201518160010160006101000a81548173ffffffffffffffffffffffffffffffffffffffff021916908373ffffffffffffffffffffffffffffffffffffffff160217905550604082015181600201556060820151816003019080519060200190610a6792919061182a565b506080820151816004015560a08201518160050160006101000a81548160ff02191690831515021790555050503373ffffffffffffffffffffffffffffffffffffffff167f8dfa4a39b973cacc42c5d14d9461d66fd1fda5ea696f7d2a3c44fd9d7f11d04f82604051610ada91906118e6565b60405180910390a25050505050565b81600073ffffffffffffffffffffffffffffffffffffffff168173ffffffffffffffffffffffffffffffffffffffff161415610b5c57806040517fb20f76e3000000000000000000000000000000000000000000000000000000008152600401610b539190611d04565b60405180910390fd5b8160008111158015610b72575060008054905081115b15610bb457806040517f64e6215a000000000000000000000000000000000000000000000000000000008152600401610bab91906118e6565b60405180910390fd5b3073ffffffffffffffffffffffffffffffffffffffff163373ffffffffffffffffffffffffffffffffffffffff1614610c19576040517f3d693ada00000000000000000000000000000000000000000000000000000000815260040160405180910390fd5b600160008573ffffffffffffffffffffffffffffffffffffffff1673ffffffffffffffffffffffffffffffffffffffff16815260200190815260200160002060009054906101000a900460ff16610c9c576040517feea91ff800000000000000000000000000000000000000000000000000000000815260040160405180910390fd5b60005b600080549050811015610d3f578473ffffffffffffffffffffffffffffffffffffffff1660008281548110610cd757610cd6611fad565b5b9060005260206000200160009054906101000a900473ffffffffffffffffffffffffffffffffffffffff1673ffffffffffffffffffffffffffffffffffffffff161415610d2c57610d27816115c9565b610d3f565b8080610d37906121fa565b915050610c9f565b508260028190555050505050565b60008181548110610d5d57600080fd5b906000526020600020016000915054906101000a900473ffffffffffffffffffffffffffffffffffffffff1681565b80600073ffffffffffffffffffffffffffffffffffffffff168173ffffffffffffffffffffffffffffffffffffffff161415610dff57806040517fb20f76e3000000000000000000000000000000000000000000000000000000008152600401610df69190611d04565b60405180910390fd5b81600160008273ffffffffffffffffffffffffffffffffffffffff1673ffffffffffffffffffffffffffffffffffffffff16815260200190815260200160002060009054906101000a900460ff1615610e8f57806040517f8beb928c000000000000000000000000000000000000000000000000000000008152600401610e869190611d04565b60405180910390fd5b3073ffffffffffffffffffffffffffffffffffffffff163373ffffffffffffffffffffffffffffffffffffffff1614610ef4576040517f3d693ada00000000000000000000000000000000000000000000000000000000815260040160405180910390fd5b60018060008573ffffffffffffffffffffffffffffffffffffffff1673ffffffffffffffffffffffffffffffffffffffff16815260200190815260200160002060006101000a81548160ff0219169083151502179055506000839080600181540180825580915050600190039060005260206000200160009091909190916101000a81548173ffffffffffffffffffffffffffffffffffffffff021916908373ffffffffffffffffffffffffffffffffffffffff1602179055508273ffffffffffffffffffffffffffffffffffffffff167f3edd90e7770f06fafde38004653b33870066c33bfc923ff6102acd601f85dfbc60405160405180910390a2505050565b60046020528160005260406000206020528060005260406000206000915091509054906101000a900460ff1681565b6003818154811061103557600080fd5b906000526020600020906006020160009150905080600001805461105890612077565b80601f016020809104026020016040519081016040528092919081815260200182805461108490612077565b80156110d15780601f106110a6576101008083540402835291602001916110d1565b820191906000526020600020905b8154815290600101906020018083116110b457829003601f168201915b5050505050908060010160009054906101000a900473ffffffffffffffffffffffffffffffffffffffff169080600201549080600301805461111290612077565b80601f016020809104026020016040519081016040528092919081815260200182805461113e90612077565b801561118b5780601f106111605761010080835404028352916020019161118b565b820191906000526020600020905b81548152906001019060200180831161116e57829003601f168201915b5050505050908060040154908060050160009054906101000a900460ff16905086565b600160003373ffffffffffffffffffffffffffffffffffffffff1673ffffffffffffffffffffffffffffffffffffffff16815260200190815260200160002060009054906101000a900460ff16611231576040517feea91ff800000000000000000000000000000000000000000000000000000000815260040160405180910390fd5b8060038054905081111561127c57806040517f1fa5e7c000000000000000000000000000000000000000000000000000000000815260040161127391906118e6565b60405180910390fd5b61128582611700565b61128e826114ac565b6000600383815481106112a4576112a3611fad565b5b906000526020600020906006020190508060040160008154809291906112c9906122af565b919050555060006004600085815260200190815260200160002060003373ffffffffffffffffffffffffffffffffffffffff1673ffffffffffffffffffffffffffffffffffffffff16815260200190815260200160002060006101000a81548160ff0219169083151502179055503373ffffffffffffffffffffffffffffffffffffffff167f8ac0ec85d3817644471cdaff11fb456b57808050d06be464ecb80960c69708268460405161137d91906118e6565b60405180910390a2505050565b6005805461139790612077565b80601f01602080910402602001604051908101604052809291908181526020018280546113c390612077565b80156114105780601f106113e557610100808354040283529160200191611410565b820191906000526020600020905b8154815290600101906020018083116113f357829003601f168201915b505050505081565b60025481565b606060008054806020026020016040519081016040528092919081815260200182805480156114a257602002820191906000526020600020905b8160009054906101000a900473ffffffffffffffffffffffffffffffffffffffff1673ffffffffffffffffffffffffffffffffffffffff1681526020019060010190808311611458575b5050505050905090565b600381815481106114c0576114bf611fad565b5b906000526020600020906006020160050160009054906101000a900460ff161561152157806040517f1686a22100000000000000000000000000000000000000000000000000000000815260040161151891906118e6565b60405180910390fd5b50565b6004600082815260200190815260200160002060003373ffffffffffffffffffffffffffffffffffffffff1673ffffffffffffffffffffffffffffffffffffffff16815260200190815260200160002060009054906101000a900460ff16156115c65733816040517f2636c6050000000000000000000000000000000000000000000000000000000081526004016115bd9291906122d9565b60405180910390fd5b50565b600081815481106115dd576115dc611fad565b5b9060005260206000200160006101000a81549073ffffffffffffffffffffffffffffffffffffffff02191690556000600160008054905061161e9190612302565b8154811061162f5761162e611fad565b5b9060005260206000200160009054906101000a900473ffffffffffffffffffffffffffffffffffffffff166000828154811061166e5761166d611fad565b5b9060005260206000200160006101000a81548173ffffffffffffffffffffffffffffffffffffffff021916908373ffffffffffffffffffffffffffffffffffffffff16021790555060008054806116c8576116c7612336565b5b6001900381819060005260206000200160006101000a81549073ffffffffffffffffffffffffffffffffffffffff0219169055905550565b6004600082815260200190815260200160002060003373ffffffffffffffffffffffffffffffffffffffff1673ffffffffffffffffffffffffffffffffffffffff16815260200190815260200160002060009054906101000a900460ff166117a15733816040517f8ae6d3470000000000000000000000000000000000000000000000000000000081526004016117989291906122d9565b60405180910390fd5b50565b8280546117b090612077565b90600052602060002090601f0160209004810192826117d25760008555611819565b82601f106117eb57805160ff1916838001178555611819565b82800160010185558215611819579182015b828111156118185782518255916020019190600101906117fd565b5b50905061182691906118b0565b5090565b82805461183690612077565b90600052602060002090601f016020900481019282611858576000855561189f565b82601f1061187157805160ff191683800117855561189f565b8280016001018555821561189f579182015b8281111561189e578251825591602001919060010190611883565b5b5090506118ac91906118b0565b5090565b5b808211156118c95760008160009055506001016118b1565b5090565b6000819050919050565b6118e0816118cd565b82525050565b60006020820190506118fb60008301846118d7565b92915050565b6000604051905090565b600080fd5b600080fd5b61191e816118cd565b811461192957600080fd5b50565b60008135905061193b81611915565b92915050565b6000602082840312156119575761195661190b565b5b60006119658482850161192c565b91505092915050565b600073ffffffffffffffffffffffffffffffffffffffff82169050919050565b60006119998261196e565b9050919050565b6119a98161198e565b81146119b457600080fd5b50565b6000813590506119c6816119a0565b92915050565b6000602082840312156119e2576119e161190b565b5b60006119f0848285016119b7565b91505092915050565b60008115159050919050565b611a0e816119f9565b82525050565b6000602082019050611a296000830184611a05565b92915050565b600080fd5b600080fd5b6000601f19601f8301169050919050565b7f4e487b7100000000000000000000000000000000000000000000000000000000600052604160045260246000fd5b611a8282611a39565b810181811067ffffffffffffffff82111715611aa157611aa0611a4a565b5b80604052505050565b6000611ab4611901565b9050611ac08282611a79565b919050565b600067ffffffffffffffff821115611ae057611adf611a4a565b5b611ae982611a39565b9050602081019050919050565b82818337600083830152505050565b6000611b18611b1384611ac5565b611aaa565b905082815260208101848484011115611b3457611b33611a34565b5b611b3f848285611af6565b509392505050565b600082601f830112611b5c57611b5b611a2f565b5b8135611b6c848260208601611b05565b91505092915050565b600067ffffffffffffffff821115611b9057611b8f611a4a565b5b611b9982611a39565b9050602081019050919050565b6000611bb9611bb484611b75565b611aaa565b905082815260208101848484011115611bd557611bd4611a34565b5b611be0848285611af6565b509392505050565b600082601f830112611bfd57611bfc611a2f565b5b8135611c0d848260208601611ba6565b91505092915050565b60008060008060808587031215611c3057611c2f61190b565b5b600085013567ffffffffffffffff811115611c4e57611c4d611910565b5b611c5a87828801611b47565b9450506020611c6b878288016119b7565b9350506040611c7c8782880161192c565b925050606085013567ffffffffffffffff811115611c9d57611c9c611910565b5b611ca987828801611be8565b91505092959194509250565b60008060408385031215611ccc57611ccb61190b565b5b6000611cda858286016119b7565b9250506020611ceb8582860161192c565b9150509250929050565b611cfe8161198e565b82525050565b6000602082019050611d196000830184611cf5565b92915050565b60008060408385031215611d3657611d3561190b565b5b6000611d448582860161192c565b9250506020611d55858286016119b7565b9150509250929050565b600081519050919050565b600082825260208201905092915050565b60005b83811015611d99578082015181840152602081019050611d7e565b83811115611da8576000848401525b50505050565b6000611db982611d5f565b611dc38185611d6a565b9350611dd3818560208601611d7b565b611ddc81611a39565b840191505092915050565b600081519050919050565b600082825260208201905092915050565b6000611e0e82611de7565b611e188185611df2565b9350611e28818560208601611d7b565b611e3181611a39565b840191505092915050565b600060c0820190508181036000830152611e568189611dae565b9050611e656020830188611cf5565b611e7260408301876118d7565b8181036060830152611e848186611e03565b9050611e9360808301856118d7565b611ea060a0830184611a05565b979650505050505050565b60006020820190508181036000830152611ec58184611dae565b905092915050565b600081519050919050565b600082825260208201905092915050565b6000819050602082019050919050565b611f028161198e565b82525050565b6000611f148383611ef9565b60208301905092915050565b6000602082019050919050565b6000611f3882611ecd565b611f428185611ed8565b9350611f4d83611ee9565b8060005b83811015611f7e578151611f658882611f08565b9750611f7083611f20565b925050600181019050611f51565b5085935050505092915050565b60006020820190508181036000830152611fa58184611f2d565b905092915050565b7f4e487b7100000000000000000000000000000000000000000000000000000000600052603260045260246000fd5b7f63616e6e6f742065786563757465207478000000000000000000000000000000600082015250565b6000612012601183611d6a565b915061201d82611fdc565b602082019050919050565b6000602082019050818103600083015261204181612005565b9050919050565b7f4e487b7100000000000000000000000000000000000000000000000000000000600052602260045260246000fd5b6000600282049050600182168061208f57607f821691505b602082108114156120a3576120a2612048565b5b50919050565b600081905092915050565b60008190508160005260206000209050919050565b600081546120d681612077565b6120e081866120a9565b945060018216600081146120fb576001811461210c5761213f565b60ff1983168652818601935061213f565b612115856120b4565b60005b8381101561213757815481890152600182019150602081019050612118565b838801955050505b50505092915050565b600061215482846120c9565b915081905092915050565b7f7478206661696c65640000000000000000000000000000000000000000000000600082015250565b6000612195600983611d6a565b91506121a08261215f565b602082019050919050565b600060208201905081810360008301526121c481612188565b9050919050565b7f4e487b7100000000000000000000000000000000000000000000000000000000600052601160045260246000fd5b6000612205826118cd565b91507fffffffffffffffffffffffffffffffffffffffffffffffffffffffffffffffff821415612238576122376121cb565b5b600182019050919050565b7f696e76616c696420746f00000000000000000000000000000000000000000000600082015250565b6000612279600a83611d6a565b915061228482612243565b602082019050919050565b600060208201905081810360008301526122a88161226c565b9050919050565b60006122ba826118cd565b915060008214156122ce576122cd6121cb565b5b600182039050919050565b60006040820190506122ee6000830185611cf5565b6122fb60208301846118d7565b9392505050565b600061230d826118cd565b9150612318836118cd565b92508282101561232b5761232a6121cb565b5b828203905092915050565b7f4e487b7100000000000000000000000000000000000000000000000000000000600052603160045260246000fdfea26469706673582212209e8e67f18d5a4497438cc5454b320cb1b7cbd73344a5ea5c64d810e34c528b9c64736f6c63430008090033",
  "devdoc": {
    "kind": "dev",
    "methods": {},
    "version": 1
  },
  "userdoc": {
    "kind": "user",
    "methods": {},
    "version": 1
  },
  "storageLayout": {
    "storage": [
      {
        "astId": 86,
        "contract": "contracts/MultiSig.sol:MultiSig",
        "label": "walletOwners",
        "offset": 0,
        "slot": "0",
        "type": "t_array(t_address)dyn_storage"
      },
      {
        "astId": 90,
        "contract": "contracts/MultiSig.sol:MultiSig",
        "label": "isOwner",
        "offset": 0,
        "slot": "1",
        "type": "t_mapping(t_address,t_bool)"
      },
      {
        "astId": 92,
        "contract": "contracts/MultiSig.sol:MultiSig",
        "label": "approvalsRequired",
        "offset": 0,
        "slot": "2",
        "type": "t_uint256"
      },
      {
        "astId": 109,
        "contract": "contracts/MultiSig.sol:MultiSig",
        "label": "transactions",
        "offset": 0,
        "slot": "3",
        "type": "t_array(t_struct(TransactionProposals)105_storage)dyn_storage"
      },
      {
        "astId": 115,
        "contract": "contracts/MultiSig.sol:MultiSig",
        "label": "isConfirmed",
        "offset": 0,
        "slot": "4",
        "type": "t_mapping(t_uint256,t_mapping(t_address,t_bool))"
      },
      {
        "astId": 117,
        "contract": "contracts/MultiSig.sol:MultiSig",
        "label": "walletName",
        "offset": 0,
        "slot": "5",
        "type": "t_string_storage"
      }
    ],
    "types": {
      "t_address": {
        "encoding": "inplace",
        "label": "address",
        "numberOfBytes": "20"
      },
      "t_array(t_address)dyn_storage": {
        "base": "t_address",
        "encoding": "dynamic_array",
        "label": "address[]",
        "numberOfBytes": "32"
      },
      "t_array(t_struct(TransactionProposals)105_storage)dyn_storage": {
        "base": "t_struct(TransactionProposals)105_storage",
        "encoding": "dynamic_array",
        "label": "struct MultiSig.TransactionProposals[]",
        "numberOfBytes": "32"
      },
      "t_bool": {
        "encoding": "inplace",
        "label": "bool",
        "numberOfBytes": "1"
      },
      "t_bytes_storage": {
        "encoding": "bytes",
        "label": "bytes",
        "numberOfBytes": "32"
      },
      "t_mapping(t_address,t_bool)": {
        "encoding": "mapping",
        "key": "t_address",
        "label": "mapping(address => bool)",
        "numberOfBytes": "32",
        "value": "t_bool"
      },
      "t_mapping(t_uint256,t_mapping(t_address,t_bool))": {
        "encoding": "mapping",
        "key": "t_uint256",
        "label": "mapping(uint256 => mapping(address => bool))",
        "numberOfBytes": "32",
        "value": "t_mapping(t_address,t_bool)"
      },
      "t_string_storage": {
        "encoding": "bytes",
        "label": "string",
        "numberOfBytes": "32"
      },
      "t_struct(TransactionProposals)105_storage": {
        "encoding": "inplace",
        "label": "struct MultiSig.TransactionProposals",
        "members": [
          {
            "astId": 94,
            "contract": "contracts/MultiSig.sol:MultiSig",
            "label": "name",
            "offset": 0,
            "slot": "0",
            "type": "t_string_storage"
          },
          {
            "astId": 96,
            "contract": "contracts/MultiSig.sol:MultiSig",
            "label": "to",
            "offset": 0,
            "slot": "1",
            "type": "t_address"
          },
          {
            "astId": 98,
            "contract": "contracts/MultiSig.sol:MultiSig",
            "label": "value",
            "offset": 0,
            "slot": "2",
            "type": "t_uint256"
          },
          {
            "astId": 100,
            "contract": "contracts/MultiSig.sol:MultiSig",
            "label": "data",
            "offset": 0,
            "slot": "3",
            "type": "t_bytes_storage"
          },
          {
            "astId": 102,
            "contract": "contracts/MultiSig.sol:MultiSig",
            "label": "confirmations",
            "offset": 0,
            "slot": "4",
            "type": "t_uint256"
          },
          {
            "astId": 104,
            "contract": "contracts/MultiSig.sol:MultiSig",
            "label": "executed",
            "offset": 0,
            "slot": "5",
            "type": "t_bool"
          }
        ],
        "numberOfBytes": "192"
      },
      "t_uint256": {
        "encoding": "inplace",
        "label": "uint256",
        "numberOfBytes": "32"
      }
    }
  }
}